{
  "transactions": [
    {
      "hash": "0x67de041a764bd16a6157056e6e60e6d9a80d7204364faf9a76b36e300894a991",
      "transactionType": "CALL",
      "contractName": "TTTDemo",
      "contractAddress": "0x4AdAE813fB8Bc4b4767b6caA782cFDbaB995520D",
      "function": "start(uint64,address)",
      "arguments": [
        "12532609583862916517",
        "0xc36af0D9FFe61C41D5FDa3972B4EC9De2AEfB366"
      ],
      "transaction": {
        "type": "0x02",
        "from": "0xf5acd7df01a57360e8e53ac2d28b8452ec0efcc6",
        "to": "0x4adae813fb8bc4b4767b6caa782cfdbab995520d",
        "gas": "0x796bf",
        "value": "0x0",
        "data": "0xd88dc8c3000000000000000000000000000000000000000000000000adecc60412ce25a5000000000000000000000000c36af0d9ffe61c41d5fda3972b4ec9de2aefb366",
        "nonce": "0x13e",
        "accessList": []
      },
      "additionalContracts": [],
      "isFixedGasLimit": false
    }
  ],
  "receipts": [],
  "libraries": [],
  "pending": [
    "0x67de041a764bd16a6157056e6e60e6d9a80d7204364faf9a76b36e300894a991"
  ],
  "returns": {},
  "timestamp": 1701700276,
  "chain": 11155111,
  "multi": false,
  "commit": "06d569a"
}