{
  "transactions": [
    {
      "hash": "0xf0ec6f0a85c0503232df6565d17eb168738cbea176957c7e746205f555e9fa0a",
      "transactionType": "CALL",
      "contractName": "TTTDemo",
      "contractAddress": "0x6961883b86CAA1e09031E9472DccA6A68DA30941",
      "function": "start(uint64,address)",
      "arguments": [
        "12532609583862916517",
        "0x676f5411d73B4f66c7001FF9556a05a6f3D99805"
      ],
      "transaction": {
        "type": "0x02",
        "from": "0xf5acd7df01a57360e8e53ac2d28b8452ec0efcc6",
        "to": "0x6961883b86caa1e09031e9472dcca6a68da30941",
        "gas": "0x796ae",
        "value": "0x0",
        "data": "0xd88dc8c3000000000000000000000000000000000000000000000000adecc60412ce25a5000000000000000000000000676f5411d73b4f66c7001ff9556a05a6f3d99805",
        "nonce": "0x146",
        "accessList": []
      },
      "additionalContracts": [],
      "isFixedGasLimit": false
    }
  ],
  "receipts": [],
  "libraries": [],
  "pending": [
    "0xf0ec6f0a85c0503232df6565d17eb168738cbea176957c7e746205f555e9fa0a"
  ],
  "returns": {},
  "timestamp": 1701744803,
  "chain": 11155111,
  "multi": false,
  "commit": "06d569a"
}