{
  "transactions": [
    {
      "hash": "0xf0ec6f0a85c0503232df6565d17eb168738cbea176957c7e746205f555e9fa0a",
      "transactionType": "CALL",
      "contractName": "TTTDemo",
      "contractAddress": "0x6961883b86CAA1e09031E9472DccA6A68DA30941",
      "function": "start(uint64,address)",
      "arguments": [
        "12532609583862916517",
        "0x676f5411d73B4f66c7001FF9556a05a6f3D99805"
      ],
      "transaction": {
        "type": "0x02",
        "from": "0xf5acd7df01a57360e8e53ac2d28b8452ec0efcc6",
        "to": "0x6961883b86caa1e09031e9472dcca6a68da30941",
        "gas": "0x796ae",
        "value": "0x0",
        "data": "0xd88dc8c3000000000000000000000000000000000000000000000000adecc60412ce25a5000000000000000000000000676f5411d73b4f66c7001ff9556a05a6f3d99805",
        "nonce": "0x146",
        "accessList": []
      },
      "additionalContracts": [],
      "isFixedGasLimit": false
    }
  ],
  "receipts": [
    {
      "transactionHash": "0xf0ec6f0a85c0503232df6565d17eb168738cbea176957c7e746205f555e9fa0a",
      "transactionIndex": "0x4",
      "blockHash": "0x0f7583863e26b1a1c168645a4247020b21cfe7a1683e322aa535e7016dc08332",
      "blockNumber": "0x499dbb",
      "from": "0xF5AcD7df01A57360E8E53AC2d28B8452EC0eFcc6",
      "to": "0x6961883b86CAA1e09031E9472DccA6A68DA30941",
      "cumulativeGasUsed": "0x7f567",
      "gasUsed": "0x57e78",
      "contractAddress": null,
      "logs": [
        {
          "address": "0x779877A7B0D9E8603169DdbD7836e478b4624789",
          "topics": [
            "0x8c5be1e5ebec7d5bd14f71427d1e84f3dd0314c0f7b2291e5b200ac8c7c3b925",
            "0x0000000000000000000000006961883b86caa1e09031e9472dcca6a68da30941",
            "0x000000000000000000000000d0daae2231e9cb96b94c8512223533293c3693bf"
          ],
          "data": "0x00000000000000000000000000000000000000000000000001121e4a5c9ad216",
          "blockHash": "0x0f7583863e26b1a1c168645a4247020b21cfe7a1683e322aa535e7016dc08332",
          "blockNumber": "0x499dbb",
          "transactionHash": "0xf0ec6f0a85c0503232df6565d17eb168738cbea176957c7e746205f555e9fa0a",
          "transactionIndex": "0x4",
          "logIndex": "0x3",
          "removed": false
        },
        {
          "address": "0x779877A7B0D9E8603169DdbD7836e478b4624789",
          "topics": [
            "0xddf252ad1be2c89b69c2b068fc378daa952ba7f163c4a11628f55a4df523b3ef",
            "0x0000000000000000000000006961883b86caa1e09031e9472dcca6a68da30941",
            "0x00000000000000000000000023438be3256369316e53fd2ef1cd2bdfaf22f6ad"
          ],
          "data": "0x00000000000000000000000000000000000000000000000001121e4a5c9ad216",
          "blockHash": "0x0f7583863e26b1a1c168645a4247020b21cfe7a1683e322aa535e7016dc08332",
          "blockNumber": "0x499dbb",
          "transactionHash": "0xf0ec6f0a85c0503232df6565d17eb168738cbea176957c7e746205f555e9fa0a",
          "transactionIndex": "0x4",
          "logIndex": "0x4",
          "removed": false
        },
        {
          "address": "0x779877A7B0D9E8603169DdbD7836e478b4624789",
          "topics": [
            "0x8c5be1e5ebec7d5bd14f71427d1e84f3dd0314c0f7b2291e5b200ac8c7c3b925",
            "0x0000000000000000000000006961883b86caa1e09031e9472dcca6a68da30941",
            "0x000000000000000000000000d0daae2231e9cb96b94c8512223533293c3693bf"
          ],
          "data": "0x0000000000000000000000000000000000000000000000000000000000000000",
          "blockHash": "0x0f7583863e26b1a1c168645a4247020b21cfe7a1683e322aa535e7016dc08332",
          "blockNumber": "0x499dbb",
          "transactionHash": "0xf0ec6f0a85c0503232df6565d17eb168738cbea176957c7e746205f555e9fa0a",
          "transactionIndex": "0x4",
          "logIndex": "0x5",
          "removed": false
        },
        {
          "address": "0x23438BE3256369316e53FD2eF1Cd2BDFAF22f6AD",
          "topics": [
            "0xaffc45517195d6499808c643bd4a7b0ffeedf95bea5852840d7bfcf63f59e821"
          ],
          "data": "0x0000000000000000000000000000000000000000000000000000000000000020000000000000000000000000000000000000000000000000de41ba4fc9d91ad90000000000000000000000000000000000000000000000000000000000001ffe00000000000000000000000000000000000000000000000001121e4a5c9ad2160000000000000000000000006961883b86caa1e09031e9472dcca6a68da3094100000000000000000000000000000000000000000000000000000000000000010000000000000000000000000000000000000000000000000000000000061a800000000000000000000000000000000000000000000000000000000000000000000000000000000000000000676f5411d73b4f66c7001ff9556a05a6f3d9980500000000000000000000000000000000000000000000000000000000000001800000000000000000000000000000000000000000000000000000000000000480000000000000000000000000779877a7b0d9e8603169ddbd7836e478b4624789a521f3448dbfd371fa9eb1ae16dfb4203390c7ab526053dc5a6154615d21bc3700000000000000000000000000000000000000000000000000000000000002e007d8e1f01a2313c65b0582ac65898ba29eaef078f3ceffbe74eab30eacdb5578000000000000000000000000f5acd7df01a57360e8e53ac2d28b8452ec0efcc600000000000000000000000000000000000000000000000000000000000000000000000000000000000000000000000000000000000000000000000000000000000000000000000000000000f5acd7df01a57360e8e53ac2d28b8452ec0efcc60000000000000000000000000000000000000000000000000000000000000000000000000000000000000000000000000000000000000000000000000000000000000000000000000000000000000000000000000000000000000000000000000000000000000000000000000000000000000000000000000000000000000000000000000000000000000000000000000000000000000000000000000000000000000000000000000000000000000000000000000000000000000000000000000000000000000000000000000000000000000000000000000000000000000000000000000000000000000000000000000000000000000000000000000000000000000000000000000000000000000000000000000000000000000000000000000000000000000000000000000000000000000000000000000000000000000000000000000000000000000000000000000000000000000000000000000000000000000000000000000000000000000000000000000000000000000000000000000000000000000000000000000000000000000000000000000000000000000000000000000000000000000000000000000000000000000000000000000000000000000000000000000000000000000000000000000000000000000000000000000000000000000000000000000000000000000000000000000000000000000000000000000000000000000000000000000000000000000000000000000000000000000000000000000000000000000000000000000000000000000000000000000000000000000000000000000000000000000000000000000000000000000000",
          "blockHash": "0x0f7583863e26b1a1c168645a4247020b21cfe7a1683e322aa535e7016dc08332",
          "blockNumber": "0x499dbb",
          "transactionHash": "0xf0ec6f0a85c0503232df6565d17eb168738cbea176957c7e746205f555e9fa0a",
          "transactionIndex": "0x4",
          "logIndex": "0x6",
          "removed": false
        },
        {
          "address": "0x6961883b86CAA1e09031E9472DccA6A68DA30941",
          "topics": [
            "0x1f54b3d279e5b9264931c538e7fa2809fe945570f972aaba4c00f01279d89b56",
            "0xa521f3448dbfd371fa9eb1ae16dfb4203390c7ab526053dc5a6154615d21bc37",
            "0x000000000000000000000000000000000000000000000000adecc60412ce25a5"
          ],
          "data": "0x000000000000000000000000676f5411d73b4f66c7001ff9556a05a6f3d9980507d8e1f01a2313c65b0582ac65898ba29eaef078f3ceffbe74eab30eacdb5578000000000000000000000000f5acd7df01a57360e8e53ac2d28b8452ec0efcc600000000000000000000000000000000000000000000000000000000000000000000000000000000000000000000000000000000000000000000000000000000000000000000000000000000f5acd7df01a57360e8e53ac2d28b8452ec0efcc600000000000000000000000000000000000000000000000000000000000000000000000000000000000000000000000000000000000000000000000000000000000000000000000000000000000000000000000000000000000000000000000000000000000000000000000000000000000000000000000000000000000000000000000000000000000000000000000000000000000000000000000000000000000000000000000000000000000000000000000000000000000000000000000000000000000000000000000000000000000000000000000000000000000000000000000000000000000000000000000000000000000000000000000000000000000000000000000000000000000000000000000000000000000000000000000000000000000000000000000000000000000000000000000000000000000000000000000000000000000000000000000000000000000000000000000000000000000000000000000000000000000000000000000000000000000000000000000000000000000000000000000000000000000000000000000000000000000000000000000000000000000000000000000000000000000000000000000000000000000000000000000000000000000000000000000000000000000000000000000000000000000000000000000000000000000000000000000000000000000000000000000000000000000000000000000000000000000000000000000000000000000000000000000000000000000000000000000000000000000000000000000000000000000000000000000000000000000000000000000001121e4a5c9ad216",
          "blockHash": "0x0f7583863e26b1a1c168645a4247020b21cfe7a1683e322aa535e7016dc08332",
          "blockNumber": "0x499dbb",
          "transactionHash": "0xf0ec6f0a85c0503232df6565d17eb168738cbea176957c7e746205f555e9fa0a",
          "transactionIndex": "0x4",
          "logIndex": "0x7",
          "removed": false
        }
      ],
      "status": "0x1",
      "logsBloom": "0x00000004000000000020080000000000000000000000000000000000000000000000800000000200000000000000000000000000000000000000000000220000001040000000000000000008000000010001000100000080080000000000000000000000000800000000004000000000000000000000000000000010000000400000000000000000000020000000800000002000000000000000000000000000020000000000000000000000000000800002000000000000000100000000000000000002000000000000000000001000000040000000000110000001000000000010000000000002000000004000000002000000000000000000000000000000",
      "type": "0x2",
      "effectiveGasPrice": "0xb6a9aa2f"
    }
  ],
  "libraries": [],
  "pending": [],
  "returns": {},
  "timestamp": 1701744820,
  "chain": 11155111,
  "multi": false,
  "commit": "06d569a"
}