{
  "transactions": [
    {
      "hash": "0x3d81d96ab69109e6c9c9410d8f166c0a7a5bacadd8305fa7eddcea783c553846",
      "transactionType": "CALL",
      "contractName": "TTTDemo",
      "contractAddress": "0x4AdAE813fB8Bc4b4767b6caA782cFDbaB995520D",
      "function": "start(uint64,address)",
      "arguments": [
        "12532609583862916517",
        "0xc36af0D9FFe61C41D5FDa3972B4EC9De2AEfB366"
      ],
      "transaction": {
        "type": "0x02",
        "from": "0xf5acd7df01a57360e8e53ac2d28b8452ec0efcc6",
        "to": "0x4adae813fb8bc4b4767b6caa782cfdbab995520d",
        "gas": "0x6d3cb",
        "value": "0x0",
        "data": "0xd88dc8c3000000000000000000000000000000000000000000000000adecc60412ce25a5000000000000000000000000c36af0d9ffe61c41d5fda3972b4ec9de2aefb366",
        "nonce": "0x13f",
        "accessList": []
      },
      "additionalContracts": [],
      "isFixedGasLimit": false
    }
  ],
  "receipts": [
    {
      "transactionHash": "0x3d81d96ab69109e6c9c9410d8f166c0a7a5bacadd8305fa7eddcea783c553846",
      "transactionIndex": "0x5",
      "blockHash": "0x8ea829e7fe19d2856f707d8acfb77137586381330c61285c8bab949b9db593e2",
      "blockNumber": "0x499b80",
      "from": "0xF5AcD7df01A57360E8E53AC2d28B8452EC0eFcc6",
      "to": "0x4AdAE813fB8Bc4b4767b6caA782cFDbaB995520D",
      "cumulativeGasUsed": "0x85986",
      "gasUsed": "0x4ab13",
      "contractAddress": null,
      "logs": [
        {
          "address": "0x779877A7B0D9E8603169DdbD7836e478b4624789",
          "topics": [
            "0x8c5be1e5ebec7d5bd14f71427d1e84f3dd0314c0f7b2291e5b200ac8c7c3b925",
            "0x0000000000000000000000004adae813fb8bc4b4767b6caa782cfdbab995520d",
            "0x000000000000000000000000d0daae2231e9cb96b94c8512223533293c3693bf"
          ],
          "data": "0x0000000000000000000000000000000000000000000000000111a00233cb6b71",
          "blockHash": "0x8ea829e7fe19d2856f707d8acfb77137586381330c61285c8bab949b9db593e2",
          "blockNumber": "0x499b80",
          "transactionHash": "0x3d81d96ab69109e6c9c9410d8f166c0a7a5bacadd8305fa7eddcea783c553846",
          "transactionIndex": "0x5",
          "logIndex": "0x2",
          "removed": false
        },
        {
          "address": "0x779877A7B0D9E8603169DdbD7836e478b4624789",
          "topics": [
            "0xddf252ad1be2c89b69c2b068fc378daa952ba7f163c4a11628f55a4df523b3ef",
            "0x0000000000000000000000004adae813fb8bc4b4767b6caa782cfdbab995520d",
            "0x00000000000000000000000023438be3256369316e53fd2ef1cd2bdfaf22f6ad"
          ],
          "data": "0x0000000000000000000000000000000000000000000000000111a00233cb6b71",
          "blockHash": "0x8ea829e7fe19d2856f707d8acfb77137586381330c61285c8bab949b9db593e2",
          "blockNumber": "0x499b80",
          "transactionHash": "0x3d81d96ab69109e6c9c9410d8f166c0a7a5bacadd8305fa7eddcea783c553846",
          "transactionIndex": "0x5",
          "logIndex": "0x3",
          "removed": false
        },
        {
          "address": "0x779877A7B0D9E8603169DdbD7836e478b4624789",
          "topics": [
            "0x8c5be1e5ebec7d5bd14f71427d1e84f3dd0314c0f7b2291e5b200ac8c7c3b925",
            "0x0000000000000000000000004adae813fb8bc4b4767b6caa782cfdbab995520d",
            "0x000000000000000000000000d0daae2231e9cb96b94c8512223533293c3693bf"
          ],
          "data": "0x0000000000000000000000000000000000000000000000000000000000000000",
          "blockHash": "0x8ea829e7fe19d2856f707d8acfb77137586381330c61285c8bab949b9db593e2",
          "blockNumber": "0x499b80",
          "transactionHash": "0x3d81d96ab69109e6c9c9410d8f166c0a7a5bacadd8305fa7eddcea783c553846",
          "transactionIndex": "0x5",
          "logIndex": "0x4",
          "removed": false
        },
        {
          "address": "0x23438BE3256369316e53FD2eF1Cd2BDFAF22f6AD",
          "topics": [
            "0xaffc45517195d6499808c643bd4a7b0ffeedf95bea5852840d7bfcf63f59e821"
          ],
          "data": "0x0000000000000000000000000000000000000000000000000000000000000020000000000000000000000000000000000000000000000000de41ba4fc9d91ad90000000000000000000000000000000000000000000000000000000000001ff40000000000000000000000000000000000000000000000000111a00233cb6b710000000000000000000000004adae813fb8bc4b4767b6caa782cfdbab995520d00000000000000000000000000000000000000000000000000000000000000020000000000000000000000000000000000000000000000000000000000009c400000000000000000000000000000000000000000000000000000000000000000000000000000000000000000c36af0d9ffe61c41d5fda3972b4ec9de2aefb36600000000000000000000000000000000000000000000000000000000000001800000000000000000000000000000000000000000000000000000000000000480000000000000000000000000779877a7b0d9e8603169ddbd7836e478b46247892394303230f489a7c46ececf58827ba99b03abce68e4ccbcd53c2c0b98f448b500000000000000000000000000000000000000000000000000000000000002e094e164d453b3e6706c37c0318e2ba0291fc3449af04e034da79f6eb912e4d155000000000000000000000000f5acd7df01a57360e8e53ac2d28b8452ec0efcc600000000000000000000000000000000000000000000000000000000000000000000000000000000000000000000000000000000000000000000000000000000000000000000000000000000f5acd7df01a57360e8e53ac2d28b8452ec0efcc60000000000000000000000000000000000000000000000000000000000000000000000000000000000000000000000000000000000000000000000000000000000000000000000000000000000000000000000000000000000000000000000000000000000000000000000000000000000000000000000000000000000000000000000000000000000000000000000000000000000000000000000000000000000000000000000000000000000000000000000000000000000000000000000000000000000000000000000000000000000000000000000000000000000000000000000000000000000000000000000000000000000000000000000000000000000000000000000000000000000000000000000000000000000000000000000000000000000000000000000000000000000000000000000000000000000000000000000000000000000000000000000000000000000000000000000000000000000000000000000000000000000000000000000000000000000000000000000000000000000000000000000000000000000000000000000000000000000000000000000000000000000000000000000000000000000000000000000000000000000000000000000000000000000000000000000000000000000000000000000000000000000000000000000000000000000000000000000000000000000000000000000000000000000000000000000000000000000000000000000000000000000000000000000000000000000000000000000000000000000000000000000000000000000000000000000000000000000000000000000000000000000000000",
          "blockHash": "0x8ea829e7fe19d2856f707d8acfb77137586381330c61285c8bab949b9db593e2",
          "blockNumber": "0x499b80",
          "transactionHash": "0x3d81d96ab69109e6c9c9410d8f166c0a7a5bacadd8305fa7eddcea783c553846",
          "transactionIndex": "0x5",
          "logIndex": "0x5",
          "removed": false
        },
        {
          "address": "0x4AdAE813fB8Bc4b4767b6caA782cFDbaB995520D",
          "topics": [
            "0x1f54b3d279e5b9264931c538e7fa2809fe945570f972aaba4c00f01279d89b56",
            "0x2394303230f489a7c46ececf58827ba99b03abce68e4ccbcd53c2c0b98f448b5",
            "0x000000000000000000000000000000000000000000000000adecc60412ce25a5"
          ],
          "data": "0x000000000000000000000000c36af0d9ffe61c41d5fda3972b4ec9de2aefb36694e164d453b3e6706c37c0318e2ba0291fc3449af04e034da79f6eb912e4d155000000000000000000000000f5acd7df01a57360e8e53ac2d28b8452ec0efcc600000000000000000000000000000000000000000000000000000000000000000000000000000000000000000000000000000000000000000000000000000000000000000000000000000000f5acd7df01a57360e8e53ac2d28b8452ec0efcc60000000000000000000000000000000000000000000000000000000000000000000000000000000000000000000000000000000000000000000000000000000000000000000000000000000000000000000000000000000000000000000000000000000000000000000000000000000000000000000000000000000000000000000000000000000000000000000000000000000000000000000000000000000000000000000000000000000000000000000000000000000000000000000000000000000000000000000000000000000000000000000000000000000000000000000000000000000000000000000000000000000000000000000000000000000000000000000000000000000000000000000000000000000000000000000000000000000000000000000000000000000000000000000000000000000000000000000000000000000000000000000000000000000000000000000000000000000000000000000000000000000000000000000000000000000000000000000000000000000000000000000000000000000000000000000000000000000000000000000000000000000000000000000000000000000000000000000000000000000000000000000000000000000000000000000000000000000000000000000000000000000000000000000000000000000000000000000000000000000000000000000000000000000000000000000000000000000000000000000000000000000000000000000000000000000000000000000000000000000000000000000000000000000000000000000000000000000000000000000000000111a00233cb6b71",
          "blockHash": "0x8ea829e7fe19d2856f707d8acfb77137586381330c61285c8bab949b9db593e2",
          "blockNumber": "0x499b80",
          "transactionHash": "0x3d81d96ab69109e6c9c9410d8f166c0a7a5bacadd8305fa7eddcea783c553846",
          "transactionIndex": "0x5",
          "logIndex": "0x6",
          "removed": false
        }
      ],
      "status": "0x1",
      "logsBloom": "0x00000004000000000000000000000000000000000000000000000000000100010000800000000000000000000000000000000008000002000000000000220000000040000000000000000008000000010001000100000080080000000000000000000000000800000000004000000000000000000000000000010010000000000000000000000000000000200000800000002000000000000000000000000000020000000001000000000000000000000000000000000000000100000010000000000002000000000000000000001000000040000000000110000001000000000010000000000000000000004000000002000000000020000000000000000000",
      "type": "0x2",
      "effectiveGasPrice": "0xb8a002af"
    }
  ],
  "libraries": [],
  "pending": [],
  "returns": {},
  "timestamp": 1701737261,
  "chain": 11155111,
  "multi": false,
  "commit": "06d569a"
}